:020000040800F2
:10000000D85500200101000805010008070100087B
:10001000090100080B0100080D01000800000000A4
:1000200000000000000000000000000011010008B6
:100030000F0100080000000057020008C1D40008AA
:1000400071D70008A9B7000835D5000877B90008AE
:10005000C593000865B90008B5930008B993000876
:10006000BB930008BD930008BF930008B582000849
:10007000B7820008B9820008BB820008BD82000870
:10008000BF820008C1820008197B0008F5D500086E
:100090001DD70008297D00082B7D0008C1930008AA
:1000A00037D500083DD500083BD5000839D50008F4
:1000B0003FD5000841D5000843D5000843A20008F9
:1000C00041A2000847A2000845A200088DC8000808
:1000D0008FC80008D5D50008D7D50008D9D50008A5
:1000E000B793000875B90008DBD5000800000000D0
:1000F0000000000000000000000000000000000000
:1001000004480047FEE7FEE7FEE7FEE7FEE7FEE7FE
:10011000FEE700001901000800F002F800F05EF8A8
:100120000AA090E8000C82448344AAF10107DA4552
:1001300001D100F053F8AFF2090EBAE80F0013F046
:10014000010F18BFFB1A43F00103184798B00200D3
:10015000B8B002000A444FF0000C10F8013B13F055
:10016000070408BF10F8014B1D1108BF10F8015B10
:10017000641E05D010F8016B641E01F8016BF9D103
:1001800013F0080F1EBF10F8014BAD1C0C1B09D15A
:100190006D1E58BF01F801CBFAD505E014F8016BCC
:1001A00001F8016B6D1EF9D59142D6D3704700005E
:1001B0000023002400250026103A28BF78C1FBD870
:1001C000520728BF30C148BF0B6070471FB5AFF35F
:1001D000008007F04BFA1FBD10B510BD07F022FCE0
:1001E0001146FFF7F3FF0FF0B3F807F040FCFFF7FD
:1001F000F3FF07F043FC000002480349034A044BA5
:1002000070470000D84D0020D8550020D85100205C
:10021000D8510020EFF3108072B6704780F3108839
:10022000704724484FF0FF010170002080F30988D7
:100230001D480121017020484FF08051016062B6D5
:10024000FEE71D484FF08051016070471A484FF09B
:10025000805101607047EFF3098028B1203880E8B1
:10026000F00F12490968086000B50A4880475DF838
:1002700004EB0B480B490A7802700C480C490A68D9
:100280000260106890E8F00F203080F309884EF08B
:10029000040E7047C7B10008EDAC00085201002001
:1002A0005401002055010020570100207401002056
:1002B0007C01002022ED00E004ED00E072B6704702
:1002C00062B67047EFF3108072B6704780F3108803
:1002D0007047000010B50022C0F30B00B0F5006FAE
:1002E00002DDA0F500600122B0F5806F01DDC0F5F0
:1002F00000608311FA4C00F03F0034F81310C0F195
:1003000040004143402806D004EB43035B88C0F122
:10031000400003FB0011203189094842002A00D126
:10032000084610BD00F58060D4E7EE4B1A7D012A27
:1003300002D19A6D52681047521E02EBD2725210CF
:1003400001F088BB2DE9F84F141A05465F1A88465C
:1003500091469B464FF0000A54EA070004D14146FB
:100360002846BDE8F84FE0E7204600F025FA0646AB
:10037000384600F021FA86420ADA20463C46074613
:100380002846454680464846D94683464FF0010AEE
:10039000204600F011FAA04203D064427F424D464D
:1003A000D84604EBD4704FEA6009002F01DAC9F196
:1003B0000009DFF830B300269BF81600C8B914E036
:1003C00007FB069090FBF4F04044BAF1000F06D111
:1003D000DBF85810AB194A680146184603E0DBF811
:1003E0005820A91952689047761CA642E8DDBDE85E
:1003F000F88F19E007FB069090FBF4F04044009062
:10040000304600F01EFA70B9BAF1000F05D1DBF8E2
:100410005810A8194A68009904E0DBF85800A91997
:10042000426800989047761CA642E3DDDFE72DE99D
:10043000FF470446AB481646027D0D469846012A02
:1004400007D1434632462946204604B0BDE8F0476E
:1004500078E7A01BA5EB080150EA010368D0A2F1E0
:10046000010900F0ADF900F5806C00F50060FFF7C0
:1004700031FF00FB09F76046FFF72CFF00FB09F096
:10048000002F04DAC7F500718912494202E007F52E
:100490000077B912002804DAC0F5007080124042DB
:1004A00002E000F500708012002904DD4A1C02EB16
:1004B000D272521003E001EBD1725210491E01EBCF
:1004C000D1714B10002804DD411C01EBD1714910A2
:1004D00003E000EBD0714910401EA718ADF8007082
:1004E0006F18ADF80270E71A00EBD0704010ADF84D
:1004F00004702F1AF31AADF80830A8EB0000ADF81D
:100500000A00B018ADF80C0008EB0100ADF80E00C1
:100510000023ADF806701A460421684600F02FFC4F
:100520002946204600F0C8F94146304600F0C4F99B
:10053000BDE8FF872DE9F04104460D4616461F46EB
:1005400001F006FF6749086C496C044406440D44F9
:100550000F44002003F01FFD07E03B4632462946CA
:100560002046FFF764FF03F0EFFC0028F5D1BDE85B
:10057000F04101F0E5BE70B55A4C05460E46B4F99F
:100580002810B4F9260033462A46FFF750FFE584C9
:10059000268570BD534AD084118570472DE9F041FE
:1005A0000D46B0F9021006460446B0F900001746A1
:1005B000984619441044FFF7EDFF08E0B4F906002F
:1005C00000EB080134F9040F3844FFF7D4FF6D1E27
:1005D000002DF3DCB4F90010B6F90000814205D11A
:1005E000B4F90210B6F90220914207D0B6F9022000
:1005F000384402EB0801BDE8F041BCE7BDE8F081FA
:100600002DE9F04106460F4614461D4601F0A0FEB6
:100610003448016C406C0C440544002003F0BBFCE2
:1006200007E02B46224639463046FFF7B7FF03F076
:100630008BFC0028F5D1BDE8F04101F081BE70B51A
:1006400005460C4601F084FE2648C18C2944C1842D
:10065000018D21440185BDE8704001F071BE70B587
:1006600004460D4601F074FE002003F094FC60B1D6
:100670001C4EB6F92810B6F926004B190219FFF7DF
:10068000D6FE03F061FC0028F3D129462046FFF78F
:10069000D6FFBDE8704001F053BE70B505460E466A
:1006A00001F056FE0F4C206C0544606C064400209F
:1006B00003F071FC09E0B4F92810B4F926003346C0
:1006C0002A46FFF7B4FE03F03FFC0028F3D1314681
:1006D0002846FFF75FFFBDE8704001F031BE000023
:1006E0006C4F02086C48002070B505460C4601F0BE
:1006F0002FFE7449086C496C28442144FFF74AFFD7
:10070000BDE8704001F01CBE2DE9FC4106460C46D8
:100710001546984601F01CFE6A4A107D116C526C19
:100720004F19401E0E44311AADF800103918144408
:10073000ADF80410211A02EB08052844ADF80600B4
:10074000ADF80210684603F026FC15E03A46214653
:10075000304604F023FE3A462946304604F01EFE99
:100760006A1E611C304601F0D5FE6A1E611C3846C7
:1007700001F0D0FE03F0E8FB0028E7D101F0E0FD36
:10078000BDE8FC8170B504460D4601F0E1FD4D4821
:10079000016C406C0C440544002003F0FCFB05E0B8
:1007A00029462046FFF7C1FD03F0CEFB0028F7D114
:1007B000BDE8704001F0C4BD002800DC4042704735
:1007C00010B50022002801DA01224042002902DA95
:1007D00042F002024942814204DD0B4601461846BE
:1007E00042F00402890200EBD07301EB630191FB3C
:1007F000F0F08010031100F00F00334CC0F1100135
:1008000034F913004843102907D004EB4303B3F92C
:100810000230C1F1100103FB010008304FEAE07122
:1008200000EB11704FEA2010510701D5C0F5806030
:10083000D10701D0C0F50060910701D5C0F5805007
:1008400010BD20490122897D012915D002291ED021
:10085000032926D004292DD1182190FBF1F201FBA8
:1008600012000C2806DBA0F11001022902D3143873
:1008700002281FD201207047801DC11700EB1171A3
:1008800021F00F01401A0C2809DB002207E0C117F4
:1008900000EB917121F00301401A0228F5DA1046AD
:1008A0007047142190FBF1F201FB12000C28E1DBF0
:1008B0001038DDE700207047024A527D002A00D13F
:1008C00033E570476C4800208E4F020870B505462E
:1008D00001F03EFD284600F062FE040006D02046EE
:1008E00000F06BFE2A46002104F025F901F028FDF6
:1008F000204670BD7CB5294C0546608C216C0844AF
:100900006084A08C616C0844A084284600F068FFD5
:10091000618CADF800100844401EADF8040000F0F2
:1009200062FBA18CADF802100844401EADF8060031
:10093000684603F030FB04E0284600F01EFF03F099
:1009400003FB0028F8D10A2D03D0BDF80400401C99
:100950006084608C216C401A6084A08C616C401AA9
:10096000A0847CBD10B5044601F0F2FC2046FFF7E0
:10097000C1FFBDE8104001F0E3BC70B506460C466F
:10098000154601F0E5FC0548448485843046FFF7B0
:10099000B1FFBDE8704001F0D3BC00006C480020FE
:1009A0002DE9FC47050071D001F0D2FC00F0CCFE2F
:1009B000374E0746B6F9229000F0F9FEB18C80461A
:1009C000081AB08453E047F6FF71284604F077FB1D
:1009D00082460146284604F08AFB0446B08D00F0AA
:1009E0000300012805D0022805D104EBD470401083
:1009F00002E0204600E00020718C6A46081A7084EC
:100A0000ADF80000611E0844ADF80400B08CADF8EC
:100A10000200791E0844ADF806005146284604F04D
:100A20007DFBBDF80200B0845146284604F0E5FA8B
:100A3000054428780A2801D00D2811D1B08D00F086
:100A40000300012801D0022808D148467084287884
:100A50000A2809D1B08C3844B08405E0308CF5E721
:100A6000BDF8000020447084287818B16D1C2878E7
:100A70000028A8D1B18C01EB0800B084B08D20F023
:100A80000300B085BDE8FC4701F05ABCBDE8FC8717
:100A90006C48002070B506460D46144601F058FC1F
:100AA0000448458484843046FFF77AFFBDE87040EF
:100AB00001F046BC6C4800202DE9F04104460A488C
:100AC0000D46B0F92C00164640F0020000F0C6FBBF
:100AD0000746324629462046FFF7DCFF3846BDE888
:100AE000F04100F0BBBB00006C4800202DE9FF4F37
:100AF00085B000240E4691469A462546DDF814B08E
:100B000000F071FA80462EB10822314603A806F0A3
:100B10002DFE02E003A800F061FA19F00C0F02D1DB
:100B2000BDF90E4029E05746012610E039460598E8
:100B300004F0C5FA3F1A0146059804F05EFA0599DB
:100B40000844059005A803F0A5FF10B9761C002FF6
:100B5000ECD109F00C00042813D0082811D00C287F
:100B60000BD1BDF91210BDF90E000A1A06FB1821AF
:100B7000491C01EBD17100EB61045646CDF814B06D
:100B80004CE0BDF9121006FB1814641CF5E7314661
:100B9000059804F094FA0746361A0146059804F0C1
:100BA000A6FA19F003010ED001290FD0022911D1A4
:100BB000BDF91010BDF90C20891A091A01EBD17189
:100BC00002EB610506E0BDF90C5003E0BDF9101021
:100BD0000D1A6D1C2849401E4D842844ADF80800AC
:100BE000ADF804508C8404EB0800401EADF80A00F8
:100BF000ADF8064001AA3946059804F08FFA394647
:100C0000059804F0FAF905990844059000F09CFD58
:100C1000044405A803F03EFF002801D1002EB6D100
:100C200009B0BDE8F08F2DE9FC4105000E461746DE
:100C300098461BD0002401F08BFB66B1304605F0CE
:100C40005DFD040007D022463146684603F04AFFA6
:100C5000684605F053FD43463A4631462846FFF7BD
:100C600045FF204605F04AFD01F06AFBBDE8FC8126
:100C700047F6FF73D7E700006C4800202DE9FC41E0
:100C800004460D46164601F063FB104F386C796C34
:100C9000054406440C44ADF80050ADF80460ADF8CE
:100CA0000240ADF80640684603F075F907E0B86DFC
:100CB0003246036821462846984703F045F9002844
:100CC000F5D101F03DFBBDE8FC8100006C4800203F
:100CD0007CB504460D46164601F03AFB0E48016C01
:100CE000406C0C4405440644ADF80040ADF80440A7
:100CF000ADF80250ADF80660684603F04CF906E026
:100D000032462946204601F005FC03F01DF9002873
:100D1000F6D101F015FB7CBD6C48002010B50B48E6
:100D20000024006810B1804700B1012403F0B4FA38
:100D300000B10124204610BD10B5002400E00124BC
:100D4000FFF7ECFF0028FAD1204610BD6802002012
:100D500030B5894D2B680C2B10DA884C190009D05E
:100D600004EB410232F9022C824203DB24F8112009
:100D7000491EF5D124F811005B1C2B6030BD2DE914
:100D8000FE4F064640F6FF746042894617469A4673
:100D9000002101900BE006EB8100B0F90200A042B7
:100DA00000DA0446019A904200DD0190491C494551
:100DB000F1DB7348006970B1B0F90610019AA1EB3C
:100DC0000A01914200DA0191B0F90210A1EB0A0088
:100DD000A04200DD0446A9F101000290A7E04FF017
:100DE0000008DFF894B14546CBF800807EE0029918
:100DF00040468D4200DA681C06EB850EBEF90210F3
:100E000006EB8003B3F902208C46A14239D1A242FD
:100E100013D15B4A36F9251036F92000926DCB19B3
:100E20003844D2F800C004EB0A01834202DA0246D9
:100E3000184600E01A46E04757E0284600230BE03A
:100E4000411E08B9A9F10101084606EB8101B1F97B
:100E50000210A14204D15B1C02998B42F0DB2146B7
:100E6000A14242D0091B36F92500121B51403AD449
:100E7000434A3844926D04EB0A01136802469847CE
:100E800033E0A24231D001DBA14203DDA1422CDBE1
:100E9000A2422ADC614694450ADC0846A14224DCD1
:100EA0001146A24221DBBEF900C0B3F9002008E0E0
:100EB0001046A24219DCA14217DBB3F900C0BEF90B
:100EC0000020231AA2EB0C025A43002AA1EB0003D4
:100ED00002DD02EB630202E0A2EB6302521C081A7D
:100EE00092FBF0F06044FFF733FF6D1C4D45FFF6B9
:100EF0007EAF04EB0A00009000208046054611E01A
:100F00001E49B8F1000F31F915B007D01C4907EBA5
:100F10000B02896D38440B680099984788F00108E6
:100F200058466D1C144909688D42E9DB641C019820
:100F300084427FF754AFBDE8FE8F2DE9F0410646AD
:100F40000F4614461D4601F003FA0D48016C406C33
:100F50000C440544002003F01EF807E02B4622460F
:100F600039463046FFF70BFF02F0EEFF0028F5D1BF
:100F7000BDE8F04101F0E4B914020020F83000208F
:100F80006C4800202DE9FC4104460D4616461F46DC
:100F900001F0DEF91049086C496C044406440D4424
:100FA0000F44ADF80040ADF80460ADF80250ADF864
:100FB0000670684602F0EFFF07E03B4632462946DE
:100FC000204604F006FA02F0BFFF0028F5D101F038
:100FD000B7F9BDE8FC8100006C480020002801D072
:100FE00003F09FBA704710B501F0B2F903F04AFD63
:100FF000044601F0A5F9204610BD00000448332145
:101000000170392181703021C170612101717047F7
:101010001802002010B5044601F09AF90F488484A4
:10102000002401F08DF9204610BD10B5044601F0F2
:101030008FF90A484484002401F082F9204610BD4B
:1010400070B505460C4601F083F904484584002537
:10105000848401F075F9284670BD00006C480020BA
:1010600030B4002821D011B30AB3B1F90030B2F97D
:101070000040A34200DD23460380B1F90230B2F9FB
:101080000240A34200DD23464380B1F90430B2F9A7
:101090000440A34200DC23468380B1F90610B2F974
:1010A0000620914200DC1146C18030BC704701B976
:1010B000114630BC082206F059BB00001F4900222F
:1010C00048684A6070471D494A68002A00D1486054
:1010D000704700B5FFF7F2FF0028FBD100BD174AAB
:1010E000083203C2154901200860704770B500241A
:1010F00001F02EF91149086878B1401E01F1080489
:101100000860D4E90051284605F0ECF96068012830
:1011100002D12846FFF7D7FF012401F011F920463C
:1011200070BD70B504460D4605F0DCF9002804D109
:1011300029462046BDE87040D1E770BD200200205E
:1011400010B501F005F91248047D01F0F9F82046C8
:1011500010BD10B501F0FCF80D48447D01F0F0F829
:10116000204610BD70B5054601F0F2F80848047D30
:10117000057501F0E5F8204670BD70B5054601F033
:10118000E7F80348447D457501F0DAF8204670BD64
:101190006C4800206022044906F073BB01466022BF
:1011A000014806F06EBB00006C48002010B50446F4
:1011B00001F0CEF8204604F03BFABDE8104001F003
:1011C000BFB810B5044601F0C3F8204604F03CFA5D
:1011D000BDE8104001F0B4B810B50020FFF7E6FFFD
:1011E0006FF07F40FFF7EDFF0120FFF7BBFF00200E
:1011F00000F034F8002000F03FF8002000F014F870
:10120000084800F01DF8BDE81040002003F088BE3B
:1012100010B501F09DF8FFF7DFFFBDE8104001F0C9
:101220008FB80000CC56020810B5044601F090F8C3
:10123000204604F085F8044601F082F8204610BDEF
:1012400070B5054E0446B56901F082F804B1B46189
:1012500001F076F8284670BD6C48002070B5054650
:1012600001F076F80348B0F92C40858501F068F864
:10127000204670BD6C48002070B5054601F068F846
:101280000348B0F92A40458501F05AF8204670BD60
:101290006C4800200D4991E80C1080E80C10087A89
:1012A000002800D00120704710B504460C220749E1
:1012B00006F010FA002808D094E80E0003480EC08B
:1012C0002046BDE8104003F0EABD10BD10310020FB
:1012D00030B40246554C0B46401C07D0581C05D074
:1012E0006068411C02D0A1684D1C02D14FF0FF3054
:1012F0000146C4E9012330BC03F020BE4B48C0685E
:1013000070474A4800697047484840F279112430D4
:10131000016040F61D71416040F626718160EB214D
:10132000C1607047F0B5059E40F23F1400B1EF2454
:101330009D1B00D56D42142D04DB8D1A00D56D4226
:10134000142D01DA0120F0BDF51A4E42521A6E43F7
:10135000364F96FBF2F62437611A4D4395FBF2F1B6
:101360001E4447F83060194407EBC000416000207C
:10137000F0BD2E4B10B5243353F8304003EBC000C2
:101380000C604068106010BD70B5284D274C2435A6
:10139000D5E90001884202DAC4E9050101E0C4E9A7
:1013A0000510D5E90201884202DAC4E9070101E02B
:1013B000C4E90710207838B908F082FE206108F0EF
:1013C00044FE2078401C2EE008F040FEE06008F06B
:1013D0003BFED4E90402E168904208DBA269904236
:1013E00005DCE269914202DB226A914203DD4FF0A3
:1013F000FF30014614E02A68801AC0EB801303EB2B
:1014000000206B689A1A90FBF2F3AA68881A00EB26
:101410000011C1EB0020E968891A90FBF1F1184630
:10142000FFF756FF0020207070BD00003002002042
:101430002DE9F04780464FF0FF390020BE4F1BE0FA
:1014400037F81200498806EB4605014437F91500C4
:10145000411A0CB244450EDA6CB1B849014407EBAD
:101460004500B0F90220081B06F0C6F937F8150050
:10147000001B27F81500304600EB400207EB420145
:101480000E79002EDCD100EB400107EB420237F968
:101490001110B2F90220114441F28832521A424529
:1014A00000DB81460FFA89F0BDE8F087A4489D2152
:1014B0004160816041F28831C18101820021016077
:1014C00081819D4804224280018001719D49012053
:1014D000087070472DE9F041044600F027F9E41C3C
:1014E00024F00300DFF8588204B2B8F90E00A042DD
:1014F00018DB914E012000EB400106EB41014988C9
:1015000009B905B203E0401C9E28F4DB00254DB16B
:10151000204600F0E0F8411C07D12046FFF788FF85
:10152000411C02D10020BDE8F08100EB400236F8FA
:10153000121006EB420CBCF8022005EB45078B1895
:101540009CF8041006EB4702548026F817301171FE
:1015500021B101EB410106EB41014D7150718CF855
:101560000450D8F800004146401CC8F80000D8F8E4
:101570000400401EC8F80400D8F80820824200DDAC
:101580008860888920448881C889001B00B2C8818E
:10159000B1F91020824200DD08822846C3E710B569
:1015A000040000D110BD00F0D3FE2046FFF792FFEB
:1015B000044600F0C5FE204610BD002806D05E4956
:1015C00000EB400031F910005C490844704710B549
:1015D00000F0ACF85A48B0F90E0010BD70B5002408
:1015E00000F0B6FE00F0A2F80021534A0DE032F8F8
:1015F00013106B88194400EB400332F81330591A6A
:1016000009B2A14200DD0C46014601EB410302EBA9
:10161000430528790028EAD101EB410002EB4301A0
:1016200032F810004988084441F28831081A00B2A3
:10163000A04200DD044600F083FE204670BD002875
:1016400006D03D4900EB400001EB4000B0F902003C
:10165000704710B5040008D000F07AFE204600F074
:1016600013F8BDE8104000F06BBE10BD10B5044685
:1016700000F06EFEB4F90000FFF7EBFF00202080C1
:10168000BDE8104000F05CBE2B4A10B500EB4000F6
:1016900002EB4001B1F9020000281BD0284BDC8985
:1016A0000444DC819C89201A9881002048800879B4
:1016B000497901EB410402EB4404207120B100EBB5
:1016C000400002EB400041715868401C58601868A7
:1016D000401E186010BD30B50021174C0CE034F9E5
:1016E0001330B5F902502B4402EB420534F9155082
:1016F000EB1A834215DA114601EB410304EB430573
:101700002A79002AEBD101EB410204EB430334F9BF
:101710001220B3F902301A4441F288339A1A8242F5
:1017200001DB08B230BD4FF0FF3030BD0548007816
:10173000002800D1BAE67047A44400201C310020E4
:10174000584800206402002010B500F001FE2B482C
:101750008069447D00F0F4FD204610BD10B500F016
:10176000F7FDFFF7F1FF25498A8C10448884088C27
:101770004884BDE8104000F0E3BD10B504460A28D7
:1017800002D1BDE81040E9E70D2C0FD000F0E0FDDC
:101790001A4880690168204688471948016809B1DC
:1017A00020468847BDE8104000F0CABD10BD10B506
:1017B000002400F0CDFD1149888D00F00C000428B4
:1017C0000AD0082801D00C2802D18869007D44087D
:1017D00000F0B6FD204610BD8869047D641EF7E761
:1017E00010B5044600F0B4FD044880694168204605
:1017F0008847044600F0A4FD204610BD6C48002038
:10180000700200202DE9F0433F4D0446A86987B0DF
:10181000B5F92A608069214600F06BF8002847D0AE
:1018200041680088201A01EBC004A778304603F015
:1018300087FD62688146CDE903722B46012005933E
:101840000290A869C37D827DCDE90023037D2278C3
:10185000B5F92410B5F9220003F0DBFDA869477D36
:10186000017D8F4219D9C07D474301FB00F8022E4C
:1018700013D003F0DEFA064603F0C5FAFFF7A1FC29
:10188000B5F9220021784218B5F92410CB1941444A
:1018900003F09FFD3046FFF794FC484603F050FDEF
:1018A000AA69B5F922006178927D01FB0200688483
:1018B00007B0BDE8F08370B5134C0546A069294612
:1018C000806900F016F8002807D041680088281ABF
:1018D00011F83000A169897D484370BD012008805E
:1018E000704710B5806900F004F8002800D001208E
:1018F00010BD06E002888A4202D842888A4202D29B
:1019000080680028F6D170476C4800202DE9FC5F04
:1019100005461044DFF8E4830190D8F858001746D4
:101920000E4601EB030942681C4649460198904760
:10193000E81B0090D8F85800494642680098904744
:10194000D8F8580006EB070B05EB04094268594626
:1019500048469047D8F85800A6EB070A4268514617
:1019600048469047002C1AD0D8F85800371B4268D8
:101970004646394601989047B06D3946426800980E
:101980009047B06D2C1B4268594620469047B06D79
:1019900051464268204602B0BDE8F05F1047BDE8FE
:1019A000FC9F2DE9F0478046894640F2C320504312
:1019B0004FF47A7190FBF1F602FB02F002EBD27168
:1019C00000EB6107761C1446002349464046FFF7AA
:1019D0009DFF012513E005FB05F004FB0400B84260
:1019E00006DD23462A4649464046FFF78FFF641E20
:1019F00023462A4649464046FFF788FF6D1CB542FC
:101A0000E9DDBDE8F0877CB505460E46144600F0DA
:101A10009FFCBA48016C406C0D440644281BADF88D
:101A200000002819ADF80400301BADF80200301991
:101A3000ADF80600684602F0AEFA06E022463146EE
:101A40002846FFF7AEFF02F07FFA0028F6D100F03B
:101A500077FC7CBD2DE9F84F06460F4640F2C320C7
:101A600050434FF47A7190FBF1F000F1010802FB52
:101A700002F002EBD27100EB6100B1180090DFF8C8
:101A80007CB21446B01ADBF8582013680A4639466F
:101A90009847012530E005FB05F004FB04000099A0
:101AA000884216DD444513DD7219DBF85830914643
:101AB000701B521E391982461B68401C9847DBF880
:101AC0005830A9F101021B68391B0AF1010098473F
:101AD000641EDBF8580006EB0409A6EB040A036851
:101AE00079194A4650469847DBF85800791B036835
:101AF0004A46504698476D1C4545CCDDBDE8F88FF9
:101B000070B504460E46154600F022FC7B48016C79
:101B1000406C0C440644002002F03DFA06E02A46E0
:101B200031462046FFF796FF02F00EFA0028F6D164
:101B3000BDE8704000F004BC2DE9FC5F074602FBE5
:101B400002F083465843894600FB03F11E4601EB31
:101B5000500814460025DFF8A4A123E005FB05F09A
:101B60000BFB00F106FB06F200E0641E04FB04F030
:101B700002FB0010002C01DD4045F6DC3A19381B51
:101B8000CDE90002DAF8583009EB05011B689847E7
:101B90003DB1DAF85800A9EB05010368DDE9000260
:101BA00098476D1CB542D9DDF9E62DE9FC410446A4
:101BB0000D4616461F4600F0CBFB5048016C406CAA
:101BC0000C440544A01BADF80000A019ADF80400BA
:101BD000E81BADF80200E819ADF80600684602F00F
:101BE000DAF907E03B46324629462046FFF7A4FFD4
:101BF00002F0AAF90028F5D100F0A2FBBDE8FC81B3
:101C00002DE9F04F8B4685B002FB02F10491594358
:101C1000064601FB03F000EB510014469A4691463C
:101C2000002500903BE001D1002410E0049905FB61
:101C300005F041430AFB0AF200E0641E04FB04F0D5
:101C400002FB0010002C02DD009B9842F5DC25B35E
:101C5000301B0390ABEB0507A6EB0900791C3B4654
:101C60000290039AFEF76EFB0BEB0508DDE902021A
:101C7000A8F101014346FEF765FB3019B144024665
:101C80000190791C3B464846FEF75CFBA8F1010138
:101C900043464846019AFEF755FBA1466D1C554543
:101CA000C1DD05B0BDE8F08F2DE9FC4104460D46CD
:101CB00016461F4600F04CFB1048016C406C0C446B
:101CC0000544A01BADF80000A019ADF80400E81B06
:101CD000ADF80200E819ADF80600684602F05BF9BD
:101CE00007E03B46324629462046FFF789FF02F0CF
:101CF0002BF90028F5D100F023FB7FE76C4800208A
:101D00002DE9FC4104460D4616461F4600F020FB17
:101D1000042003F015FB33498046086C496C0444E9
:101D200006440D440F44ADF80040ADF80460ADF832
:101D30000250ADF80670684602F02DF907E03B4608
:101D400032462946204603F044FB02F0FDF8002805
:101D5000F5D1404603F0F4FA00F0F2FABDE8FC8158
:101D600010B500210846FFF76BF940F6FF725042AC
:101D7000BDE8104013460146C2E770B51A492E204F
:101D8000087008F0EDF91948164C0068251D25610A
:101D9000A064201D03F076FC1548A0651548256158
:101DA000A0610120207502F0DFFBA087032084F8EA
:101DB0005C006FF0704020636063002003F038FC2B
:101DC0006FF07F4003F040FC0B48E06100F008FB3F
:101DD00003F00DFC044602F0C4FA00F007FB2046B5
:101DE00070BD00006C480020650200203803002010
:101DF000D04F0208CC560208C8AE020830B4F84BE7
:101E0000B3F902408C4210DCB3F906408C420CDB83
:101E1000B3F90040844208DCB3F90430834204DBA8
:101E2000F04B1B685B6A30BC184730BC7047EC4A0B
:101E3000B2F902308B420DDCB2F906308B4209DB7D
:101E4000B2F90030834205DCB2F90420824201DBA2
:101E500008F073BC00207047E14A10B5203A906842
:101E6000002813D041681369591A02F11803198028
:101E700084685269121B5A80046824882144491ED0
:101E80009980006840881044401ED88010BDD44915
:101E900010B52039097849B120B1D149083903F08A
:101EA00015F818B100F0ACF9012010BD002010BDEC
:101EB00000F0B0B910B500F04BFAC9492039887864
:101EC000401E10F0FF00887001D100F0A3F9BDE8BA
:101ED000104000F035BA10B500F03AFAC04A203A86
:101EE0009078411C917008B900F08AF9BDE8104063
:101EF00000F026BA2DE9F047064600F029FAB84F5F
:101F0000203FB868814686422FD035680424E868AF
:101F10000068042800DC0446DFF8C48208F10808E1
:101F200007E0E868806850F8240003F079FB28F89F
:101F30001400641EF5D200F063F9288869884843CC
:101F40004400F868844205D0B7F90400FFF781FB2C
:101F50000020B88020B2FEF7B9FCB880012078706C
:101F6000BE60FFF779FF00F055F900F0E9F9484647
:101F7000BDE8F08710B500F0EBF900F041F99849A1
:101F80000020203948709849086098490860BDE8E9
:101F9000104000F0D5B910B500F0DAF99448806C23
:101FA000016A8F48884700F02BF98D4801212038BD
:101FB00041708D4A8F4911608C4A8F491160806849
:101FC00018B98E48FFF796FF01E000F023F9BDE84D
:101FD000104000F0B5B92DE9F34F8FB000F0B8F91B
:101FE0007F4B203BB3F9040000287ED001221C69FE
:101FF0000F9D1146AC4200D100215C69109DAC429E
:1020000000D100221143F0D07549203949780029C8
:102010006CD0734C203CA16809680391FFF7CDFA9E
:102020000490A0680068018805910F9B2269A3EBCA
:1020300002084FF0FF33B8F1000F08DD01220D92C6
:1020400000220C91491ECDE90A180E9208E0491EA3
:10205000CDE90D310021CDE90B130E9941440A91D0
:10206000109A6169A2EB010BBBF1000F08DD0121A1
:102070000991408800250890401ECDE9060B8DE0AF
:10208000099345886D1E0020CDE9070305EB0B0081
:10209000069083E00799002005EB0B078D4203DBD8
:1020A00006998D4200DC01200290079900208F42A2
:1020B00003DB06998F4200DC012001900E9C68E052
:1020C000049804EB080600EB440105982A4668438F
:1020D00001EB40092146039802F046FE00210B9ACD
:1020E00082460846944208DB01E063E05AE00A9A1F
:1020F000944202DC029A02B101200B9A964205DB5F
:102100000A9A964202DC019A02B101210091BAF1C9
:10211000000F14D038B1A5EB0B02A4EB0801039813
:1021200002F022FE58B92E48B9F800200838B0F95C
:102130000210B0F9000029442044FFF75FFE009828
:1021400038B1049800EB46010598784331F8100047
:102150000AE023480838B0F90210B0F90000394409
:102160003044FFF764FE80B2A9F80000BAF1000F16
:102170000DD0504600F023F882B219480838B0F963
:102180000210B0F9000039443044FFF737FE0D98D3
:1021900004440C98844293D10998054408988542D8
:1021A0007FF478AF0E490F98203908611098486184
:1021B000FFF752FE11B0BDE8F04F00F0C1B804289F
:1021C00004DA0749083131F8100070470449203912
:1021D00089680968C968896851F8200003F020BA45
:1021E000A002002038030020780200207C0200209A
:1021F0006C4800208F1E0008B11E0008C44F020862
:1022000010B54E4C2078002803D000F00FF80020C5
:10221000207010BD49484178002906D081780029F6
:1022200003D10121017000F03BB870472DE9F04760
:1022300000F08EF8414CB4F9040068B3FFF7BDF923
:10224000064604F11800B0F90410B0F900208046E9
:102250008F1AB0F90610B0F902207F1C891A01F11B
:1022600001090025A24615E000240AE0B8F9021091
:10227000B8F9000036F8142029442044FFF7BEFDC9
:10228000641CBC42F2DBDAF808006D1C00680088B0
:1022900006EB40064D45E7DBBDE8F04700F050B8DF
:1022A0002DE9F04700F054F82449B1F90400F0B3E7
:1022B0008968D1F800A0FFF780F9204F064618374B
:1022C000B7F90400B7F90010401A00F10108B7F996
:1022D0000600B7F90210401A00F10109002524E0B8
:1022E00000241BE0B7F902004119B7F900002044AF
:1022F000FFF79DFD26F814002A462146504602F0BD
:1023000033FD50B1FFF75BFF0246B7F902004119F8
:10231000B7F900002044FFF771FD641C4445E1DB80
:10232000BAF800006D1C06EB40064D4500E000E0E9
:10233000D6DBBDE8F04700F003B8000080020020C3
:1023400036494868401E486001D107F02BBF7047EE
:1023500070B5324E706820B107F0F8FEB16888425F
:1023600004D007F015FF07F0F1FEB0607068401C64
:102370007060012833D10024294D07F0E7FE04EBFB
:10238000C40101EB041155F8211081420BD031B981
:1023900004EBC40101EB041145F8210003E0641CC7
:1023A000042CEADB00243068844218D0002815DBB6
:1023B00000EBC00101EB001005EB8000001D602266
:1023C000184905F05EFA04EBC40000EB041005EBBD
:1023D0008001091D6022134805F053FA346070BD76
:1023E0000E494FF0FF30086007F0C4BE2DE9F04100
:1023F00000240B4E254604EBC40000EB041706EB4B
:102400008700001D6022074905F03BFA641C46F86E
:102410002750042CEFDBBDE8F0810000B002002063
:10242000CC4800206C48002007F098BE70B50446E8
:1024300007F094FE0519052607E0FEF77DFC3046FF
:10244000052C00DC204607F075FE07F087FE2C1AED
:10245000002CF2DC70BD1FB501AB00936B4602F09F
:10246000EEFB01A8FEF79CFA1FBD7FB50D4601A942
:1024700000911446694602F0D3FB6D1EE9B26B462B
:10248000224602F0DCFB01A8FEF78AFA7FBD1FB5E9
:1024900001A90091694602F0A2FB01A8FEF780FAAB
:1024A0001FBD7FB5051E01A80C46009006DA6946DF
:1024B000284602F0B5FB641E0546E4B2284602F049
:1024C0009BFBC1B2202003E0009A02F8010B0092AE
:1024D0000A46491CC9B2A242F6D36946284602F010
:1024E0007EFB01A8FEF75CFA7FBD0022BDE700225B
:1024F000B1E77FB515460C4601AA194600926B4616
:10250000002202F09CFB2A46214601A8FEF7C2FAEF
:102510007FBD000030B40D4CB4F90430834213DCAD
:10252000B4F9083083420FDBB4F906308B4200DD8A
:102530001946B4F90A30934200DA1A468A4203DB9C
:10254000A36C5B6930BC184730BC70476C480020F6
:102550004FF4A0707047F02070474FF4A0707047A0
:10256000F0207047102070474FF4803070470120F2
:1025700070470120704740F2352070472DE9F84F31
:10258000DDF828A00400884693461F4621D0002687
:10259000B4F900103046002900DB08468146B4F942
:1025A0000200002800DB0646FFF7D2FF411EB4F907
:1025B000040000F058F80546FFF7CDFF411EB4F9BE
:1025C000060000F050F8A5EB0904641C851B6D1C87
:1025D00008E04FF000094E46FFF7BAFF0446FFF748
:1025E000BAFF054607B96F42002C01DD002D02DC61
:1025F0000020BDE8F88F3B46224631464846CDF8DC
:1026000000A003F02EF95FEA000A04D158464146C3
:1026100088470120EDE7504603F064FA074650462C
:1026200003F051F9002415E0291BB94202DA5046A3
:1026300003F06EFA3CB132194946504603F082FA73
:10264000504603F033FA584641468847504603F057
:1026500023FA3C44AC42E7DB504603F083F8002009
:1026600003F031F9C4E7884200DD084670470000F6
:102670002DE9F0430446E68C87B008464FF0000988
:10268000C6F3002503F03AFE08B12F4600E002270A
:10269000206CFEF7D5FDB4F9480010B1FEF78DFFB0
:1026A000814605A8FEF79AFCDDE90501CDE90301A5
:1026B0002DB9206A00688047206A42690DE0002039
:1026C00002F0C2FFBDF91A30BDF91820BDF914108F
:1026D000BDF91600FEF718F8012203A903A802F0BD
:1026E00050FA04EB87008046806A02F0A1FFD8F818
:1026F000340002F0A9FF03A804F000F8FFF730FB54
:10270000022F06DAB4F84C10002031B12DB10120AF
:1027100003E0B4F84E0000B1022004EB40000022B8
:10272000B0F94A00114603F039FADDE90301CDE9B9
:10273000010125B10122114601A802F098FB0220F7
:10274000FEF79AFDB4F9442001A94846FEF790FA35
:10275000F00706D0002002F077FF022105A802F062
:10276000B3FA002003F0CAFF07B0BDE8F08370B5EC
:10277000B0F9046005463046FEF71FFF04462946BF
:10278000304603F024FB00283FD028680B282BD0CC
:102790000C2806D00F2833D131462046BDE87040C2
:1027A00066E7A868C8B1007A0028E08C4FEAC050FC
:1027B0000FD0002829DB4FF48071304603F0D3FAA4
:1027C000A08B800721D53046BDE87040012103F081
:1027D00080BE002819DA022200E00322214630469A
:1027E000BDE8704000F0ACB804F14800FEF73EFFD1
:1027F00004F14A00FEF73AFF04F14C00FEF736FF01
:102800002846BDE8704001F051BD70BD2DE9FF477D
:10281000DDE90C9804460D4616461F46DDF83CA03F
:10282000FFF796FD3023AFF2B9021FFA88F1CDE928
:102830000091CDE902233B4632462946204601F06D
:1028400040FA04000DD02046FEF7B7FE05461022E0
:10285000514603F0B6FA2022454905F1280005F05B
:1028600010F8FFF76DFD204604B0BDE8F08770B5A5
:1028700004000D4610D0FFF76BFD2046FEF79DFECD
:102880002946483002F08AF910B1204601F017FAC3
:10289000BDE87040FFF754BD70BD70B504000D4633
:1028A0000CD0FFF755FD2046FEF787FE0564204655
:1028B00001F005FABDE87040FFF742BD70BD70B58C
:1028C00004000D46164610D0022D0ED8FFF740FD2D
:1028D0002046FEF772FE00EB85008662204601F07E
:1028E000EEF9BDE87040FFF72BBD70BD70B5040078
:1028F0000D46164610D0022D0ED8FFF729FD2046B2
:10290000FEF75BFE00EB85004663204601F0D7F939
:10291000BDE87040FFF714BD70BD03F002BA4FF47C
:1029200080720029114601D003F01DBA03F032BABB
:1029300000294FF0100101D003F015BA03F02ABAB4
:1029400070B50C46064615464FF4807103F022FA26
:10295000A08B800703D52946304603F0BAFD022D2F
:1029600005D1B4F92400BDE87040FEF7ACBB70BDE2
:10297000BC0200202DE9FF410D461F46DDE90A316A
:1029800016460022CDE90021CDE902233B4632461E
:102990002946FFF73BFF04B0BDE8F0812DE9FF4178
:1029A0000D461F460446DDE90B3116460A98002203
:1029B0008DE80F003B46324629462046FFF726FFAA
:1029C000E9E700003F48006870473E490246086852
:1029D0000A6070473EB500226C46134615462CC46B
:1029E0002A2202910092694600F0D0FF3EBD0EB54A
:1029F000002269461346944681E80C102A21009172
:102A0000694600F0C3FF02980EBD2DE9F8430D465C
:102A100016461946DDE90823044600962668B047A5
:102A2000064601F095FD8046618A304603F09BF929
:102A3000304601F09EFF404607E00023009354F823
:102A4000187F1A4641462046B84701F092FF6D1E96
:102A5000002DF2DC304603F0F7FD1E21404603F066
:102A60005DFD3046BDE8F88370B505460C46FFF7BE
:102A7000BEFF08B1012112C02846BDE8704000F039
:102A8000B2BF1CB50022694613460CC16946FFF768
:102A9000A1FF04E0FEF750F908B907F053FB0098D6
:102AA0000028F7D001981CBD7CB514461D46DDE911
:102AB0000623CDE900232B462246FFF7A6FFBDE8FB
:102AC0007C40DEE7DC02002070B504460D46FEF7D0
:102AD00074FDB0F85C100A0725B1002A0DDB41F047
:102AE000080103E0002A08DA21F00801A0F85C10D0
:102AF0002046BDE8704001F0E2B870BD10B5014657
:102B0000CA8C0020920607D5B1F94000002803D1F5
:102B1000886A02F0A4F9801C10BD2DE9F05F4FF027
:102B2000000805460C46C146B0F9426001F067FD59
:102B30008346284601F06AFD8246E88C800601D56E
:102B4000B5F944902846FFF7D9FF0746B5F94E007E
:102B500010B101F075FD80462780A4F80280ABEB30
:102B6000060006EB0901A680401ECA19208102EB6F
:102B70000801E180AAEB0601491E6181A68120823D
:102B8000F019E681401E6082B5F9180022E0FEF7D8
:102B900014FDB0F90010B5F90020B0F90430891A1D
:102BA0009A1AB0F90230B5F90270DB1BB3420FD1AB
:102BB000838B1B0606D5B4F910208A4208DB491E18
:102BC000218205E0B4F90C10914201DC521CA28173
:102BD000B0F91A000028DAD1BDE8F09F2DE9F04FD6
:102BE0008BB0044601F011F906464FF0000B01F0DE
:102BF00014FD0546304601F023FD0646B4F9428037
:102C000005A92046FFF789FFB4F85C00C0F3C007B0
:102C1000B4F9500010B1FEF7D0FC8346BDF818009F
:102C2000ADF80C00BDF81C00ADF81000BDF8220096
:102C3000ADF80E00401CADF82200BDF82000BDF834
:102C40002610401CADF81210ADF82000BDF824008D
:102C5000401EADF82400A06AFEF7F2FAB4F95A302B
:102C600008A901AA58460A9101F0BCFEBDF914005A
:102C700000EB080A002001F08EF9002844D0AAF1E8
:102C8000010904EB8707F86A02F0D2FC786B02F0C6
:102C9000DBFC01AB03A958460A9A03F079FAFF4816
:102CA00002F0D2FC0021A8F101036A1E0846FEF7DB
:102CB00069F9BDF918200021521E731E0846FEF75F
:102CC00061F9BDF91C00731E401C6A1E0021FEF74D
:102CD00059F9BDF91E10731E491C6A1E0020FEF72B
:102CE00051F9B4F944006A1E00EB09035146002073
:102CF000FEF748F9B4F94200022801DB03F028FA94
:102D000001F022F90028BED10BB0BDE8F08F70B5FC
:102D100004000D4609D0FFF71BFB29462046FFF7AC
:102D2000D3FEBDE87040FFF70BBB70BD2DE9F0414D
:102D3000B0F90460054688B03046FEF73EFC044614
:102D4000D5F80880476E05E079682846884700284E
:102D500028D13F68002FF7D12868172845D032DCEA
:102D60000D2875D021DC0B2871D00C283CD1AD6822
:102D7000002D17D0287A002814D0B4F85C00000782
:102D800002D4304601F08EFD304601F08DFBB4F8E0
:102D90005C00C00606D5C2482946B0F9002030467E
:102DA00003F00AFC08B0BDE8F0810F2819D0142800
:102DB0007AD103A92046FFF7B0FE082204A94046B5
:102DC00004F0D4FCEEE71F2821D021284DD026287E
:102DD0000ED02A2868D1A86808B12066E2E7206EE4
:102DE0002DE02046FFF7FAFE5EE0B4F94C0026E045
:102DF000A8680228D6D1ADF80660A86802902720FE
:102E00000090B5F90600694600F0C0FDCAE7A86861
:102E1000012816D1B4F95E0001F043FC20B1B4F9E9
:102E20005E0001F03FFD05E0B4F94C0003F00CFC3E
:102E3000A4F85E0001213046FFF769FF0020A8607A
:102E4000B0E700213046FFF762FFABE700E027E084
:102E5000B4F85C00000727D4A8688068F8B1007A4D
:102E6000E8B1304601F01EFD1EE0AF68BFB1B7F912
:102E70000200314603F03DFA20B101213046FFF750
:102E800023FE11E000213046FFF71EFEB7F90000D7
:102E9000314603F01DFA10B13888A4F85E0003E053
:102EA00004F15000FEF7E2FB2946304602F08FFFA6
:102EB000002887D0284601F0F9F973E72DE9FE4391
:102EC0000446B0F90400074603F0BFFA8046FEF757
:102ED00074FB0546866C2068172855D008DC0E2840
:102EE0003CD00F280CD014284ED015284CD042E0EE
:102EF0001F2819D020282AD022283CD1E86B24E0B2
:102F0000E86B6FF07041884203D002F091FBFEF74E
:102F100027FF002E06D00ECC68460EC0ADF8047018
:102F20006846B047BDE8FE83A0680028FAD0B5F92E
:102F30005E0020B1B84202D001F0B4FC04E0384693
:102F400003F082FBA5F85E000020A060EAE72146BE
:102F5000404603B0BDE8F04302F039BFA0684168C5
:102F6000002908DD0068092805D1384603F06CFB0C
:102F7000A5F85E00D6E73EB1A4F804802046B4462A
:102F800003B0BDE8F04360472046BDE8FE4301F0D2
:102F90008DB910B50446B0F84C0086B018B9B4F835
:102FA0004E00002829D001A92046FFF7B6FDB4F94C
:102FB0004C00A8B1BDF90A20BDF9081003F061FA70
:102FC000BDF90E00BDF90A10421ABDF90C00BDF999
:102FD0000810521C411A491CB4F94C0003F06EFB56
:102FE000B4F94E00002808D0BDF90A10BDF906203A
:102FF0008A1ABDF9081003F044FA06B010BD70B586
:1030000004000D4610D0FFF7A3F92046FEF7D5FACD
:103010002946503001F0C2FD10B1204600F04FFEAD
:10302000BDE87040FFF78CB970BD2DE9F04F89B055
:1030300005460E4612A890E8030E17469C4641F43A
:1030400080544823174AA1B2DDF85C808DE80F0058
:1030500063463A463146284600F033FE06004BD020
:10306000FFF776F93046FEF7A8FA054630225146BA
:1030700002F0A7FE0A492022091D05F1280004F0EC
:1030800000FC002048356882C5F80080A5F814903F
:10309000E882E880E861483D04A905E0AAAAAA0000
:1030A000E00200202D2D00082846FFF736FD41F2F2
:1030B0008271CDE900610023284ACDE90223BDF9E0
:1030C0001A00BDF91610BDF91820431ABDF91400F5
:1030D0005B1C121A521C00F0F4FDA5F84C0042F2E1
:1030E0000400044202D1304601F06AFC59463046E1
:1030F000FFF785FFFFF724F9304609B005E670B504
:1031000005000C4611D0FFF723F92846FEF755FAC3
:10311000B0F95A10A14204D0A0F85A40284600F055
:10312000CEFDBDE87040FFF70BB970BD70B504006F
:103130000D4611D0FFF70CF92046FEF73EFA30F8A5
:103140005C1F15B141F0100101E021F01001018078
:10315000BDE87040FFF7F4B870BD0000BD2E000858
:10316000F0B587B00CAD1C46E0CD0B4600210291B6
:10317000CDE903100593CDE900123B4632462946BE
:103180002046FFF752FF07B0F0BDF0B587B01646F6
:103190001F46DDE90CC2DDE90E3E0D46CDE900CE4D
:1031A00004460021029103A80EC03B463246294640
:1031B0002046FFF73AFFE6E730B5026AB0F9004073
:1031C0005369B0F90420141BD0E91220641C914209
:1031D00000DA1146814200DD01465D4204EB450400
:1031E000891A4C43801A94FBF0F0184430BD2DE945
:1031F000F04100EB810415461E46069F206B02F04D
:1032000017FAA06B02F020FAFEF7AAFD3146284615
:10321000FDF716FF3846BDE8F041FDF7C1BB13B519
:10322000B0F9401021B10846FEF7C7F9044613E093
:10323000826A816CC06C521A6423401A5A4392FB12
:10324000F0F0019C01A901F0CAFC0198252100F8C9
:10325000011B00210190017020461CBD2DE9F041A9
:1032600005460C461046B5F90410B5F900208F1A32
:10327000B5F90610B5F902207F1C891A01F1010881
:1032800001F0E3FD0646FDF7AEFE296AB5F84620DB
:10329000496902F00302012A06D0022A07D1B91BAC
:1032A00001EBD171491002E0BA1B511A491E21806D
:1032B000A8EB000101EBD1714A106280218835F83A
:1032C000423F761E194421806B8831441A44628043
:1032D000401EA1801044E080BDE8F08170B5B0F9D7
:1032E000045004460146284602F071FD002814D01F
:1032F00020680B2806D00F280AD12846BDE8704068
:1033000000F066B92846FEF758F94030FEF7AEF9EE
:103310002046BDE8704000F0C9BF70BD2DE9FF41F7
:1033200004460D46DDE90A0116461F463023D34AFE
:1033300089B2DDF834808DE80F003B4632462946DD
:10334000204600F0BEFC050020D0FFF701F828461B
:10335000FEF733F904460022414602F032FDC84927
:10336000284602F095FFC749E162C7492163490039
:1033700061636FF07F41A16300210222E163A4F841
:1033800046206422C4E91212FEF7DAFF284604B090
:10339000A2E7F0B587B006000D465DD0FEF7D8FF76
:1033A0003046FEF70AF90446806CA84200DD054667
:1033B000E06CA84200DA0546A16AA94247D007DDC1
:1033C00029462046FFF7F8FEADF81400A16A05E093
:1033D0002046FFF7F1FEADF8140029462046FFF71E
:1033E000EBFEADF818000020ADF8160040F6FF70B7
:1033F000ADF81A00B4F8400020BBE06AFDF720FFEA
:10340000074603A92046FFF70AFF024601A9204606
:10341000FFF724FF01AA05A905A8FDF721FE03A9CE
:103420002046A562FFF7FBFE024601A92046FFF7F2
:1034300015FF01AA05A905A8FDF712FE3846FDF7FC
:10344000FFFE00E0A56205A9304600F002FC07B0CF
:10345000BDE8F040FEF774BF07B0F0BD70B50400E2
:103460000D460CD0FEF774FF2046FEF7A6F8C562A5
:10347000204600F024FCBDE87040FEF761BF70BD3F
:1034800070B505000C46164610D0FEF761FF2846C1
:10349000FEF793F8022C05D200EB84000663284661
:1034A00000F00DFCBDE87040FEF74ABF70BD70B57E
:1034B00005000C46164610D0FEF74AFF2846FEF7D8
:1034C0007CF8022C05D200EB84008663284600F0CD
:1034D000F6FBBDE87040FEF733BF70BDF0B587B0B6
:1034E00005000F46B8D0FEF733FF2846FEF765F813
:1034F0000446C06AFDF7A4FE064603A92046FFF76E
:103500008EFE024605A92046FFF7A8FE394604F1C3
:10351000400001F043FB88B103A92046FFF77FFE7E
:10352000024601A92046FFF799FE01AA05A905A8B0
:10353000FDF796FD05A9284600F08BFB3046FDF708
:103540007FFEFEF7FDFE87E770B504000D460DD047
:10355000FEF7FEFE2046FEF730F8A0F84650204663
:1035600000F0ADFBBDE87040FEF7EABE70BD70B57F
:1035700004000D4616460ED0FEF7EAFE2046FEF782
:103580001CF820F8425F4680204600F098FBBDE81A
:103590007040FEF7D5BE70BD70B506000C461546EE
:1035A00015D0FEF7D5FE3046FEF707F8A5420ADD36
:1035B000C16CA94202D1816CA14204D0C0E912457C
:1035C000304600F07CFBBDE87040FEF7B9BE70BD30
:1035D000F0B58BB0FDF7F1FF044605A800F0A1FFA0
:1035E000206A05A9426907A801F0CBFA2046A16A22
:1035F000FFF7E2FD054601A92046FFF710FE06464B
:10360000E06AFDF71DFE324603A92046FFF726FEBD
:103610000220FDF731FE0746DDE90701CDE909018A
:10362000681EADF8280009A803F068F80096BDF9F7
:103630000E30BDF90C2000212046FFF7D8FDDDE952
:103640000701CDE90901ADF8245009A803F056F8A7
:103650000096BDF90E30BDF90C2001212046FFF780
:10366000C6FD002003F04AF83846FDF705FE05A91F
:10367000204602F06DFC0BB0F0BD0000DD3200080A
:1036800030AF0208CC560208555555002DE9FF41D0
:103690001F460D4600230A990293CDE9003103939A
:1036A0003B462946FFF73AFE04B0BDE8F0812DE91C
:1036B000FF410D461F460446DDE90B3116460A98C8
:1036C00000228DE80F003B46324629462046FFF790
:1036D00025FEE9E7B0F90010B0F90420914205DCBD
:1036E000B0F90210B0F90600814201DD00207047F8
:1036F000012070477CB50D46FDF75FFF0446808BC7
:1037000081071CD540F601010840012817D0284642
:10371000FFF7E0FF002812D022462946684601F054
:10372000E1F96846FFF7D6FF002808D0A08B810694
:1037300006D504F108016A460846FDF791FC7CBDF8
:10374000DDE90012C4E9021240F02000FB49A08329
:10375000C888401CC8807CBD0B46B0F90220B0F977
:103760000010184601F083BB7CB5F54C0546A16BF3
:1037700021B92846BDE87C4001F08EBF082268468A
:1037800003F0F4FFED48B0F9120008B9B4F93C00B9
:10379000FDF713FF6946FFF7DFFF2946684601F092
:1037A00084F9684601F078FF7CBD2DE9F0410746B9
:1037B0000E463046FDF701FF0446808B800711D589
:1037C0002146384601F071F9B4F916500DB12E4674
:1037D000EFE7DA480A30B0F90000B04202D1012028
:1037E000BDE8F0810020FBE71CB5D44C607818B12F
:1037F000BDE81C40D348B7E7D148B0F93C00FDF71D
:10380000DCFE03C8CDE90001B4F9121011B168461D
:10381000FFF7CBFF6846FFF7A7FF1CBD2DE9F04778
:1038200006460C0013D03046FDF7C7FE0021418349
:103830000546C4822046FDF7C0FE0746A88BB7F9AF
:10384000189000F00808B9F1000F02D13E83BDE8DE
:10385000F0874846FDF7B1FE0446B8F1000F05D1E8
:10386000A08B000702D5A5F81A90EFE7B4F91A70FB
:103870000FB96683EBE73846FDF79FFEB8F1000FFE
:1038800005D1818B090702D566836F83DFE7044684
:10389000ECE770B50546FDF790FE0446B0F916005A
:1038A00000280AD0FDF789FE0646B0F91800A842A4
:1038B0000ED1FDF782FE408B308370BDFDF77DFE9B
:1038C0000146B0F91A00A84202D1608B488370BD4E
:1038D0000028F3D170BD70B50546FEF739FD974855
:1038E000B0F9084008E029462046FFF703FF2046CC
:1038F000FDF763FEB0F91440002CF4D1BDE8704030
:10390000FEF71EBD70B50546FDF757FE0446C08A9A
:10391000002807D02846FFF7BCFF2046FFF7DBFF53
:103920000020E08270BD70B50446FEF711FD844DA5
:10393000B5F93C6014B98148B0F90840AC8720461D
:10394000FDF73BFE044601F04DFEB4F9000028648B
:10395000B4F902006864FEF7F3FC304670BD70B540
:1039600005467648B0F908000DE0FDF726FEB0F9EF
:1039700014100446A94205D12846FDF71EFE808A90
:10398000A08270BD08460028EFD170BD70B504005C
:103990000D460ED0FEF7DCFC2046FDF70EFE016959
:1039A00019B1AC80016928468847BDE87040FEF730
:1039B000C7BC70BD0EB50091ADF804006946FFF7B5
:1039C000E5FF0EBD10B504465C48B0F9080007E0FD
:1039D000A04201D1012010BDFDF7EFFDB0F91400A8
:1039E0000028F5D110BD70B504004DD0FEF7B0FC35
:1039F0002046FFF7E7FFF0B32046FDF7DEFD054662
:103A00004E4E0020B082B6F91010A14200D1308293
:103A1000B6F90E10A14200D1F081B16905E0B1F90B
:103A20000420A24200D1888009680029F7D107212B
:103A3000204602F04EFDB5F9180000F026F80B21E3
:103A40002046FFF7B7FF2046FFF75CFF2046FFF751
:103A500086FFA88BC10702D0716A491E7162800679
:103A600002D5F088401EF080B088401EB08020460D
:103A7000FDF7EFFD00E003E0B6F90800FFF753FFA4
:103A8000BDE87040FEF75CBC70BD70B5044608E050
:103A90002046FDF792FDB0F91A502046FFF7A3FF2C
:103AA0002C46002CF4D170BD15E72DE9FC410E46E3
:103AB00090463EE0FDF781FD848B0546A00736D594
:103AC000B8F1000F05D042462946684601F00AF8D1
:103AD00003E0D5E90001CDE900016946304601F077
:103AE000F5F920B3E00712D1B5F90200B6F90210DA
:103AF000884205DDBDF90200401E03E0F08016E0BB
:103B0000BDF90600B6F906108842F7DB0FE0B5F9FB
:103B100018400AE02046FDF750FD07466A46314648
:103B20002046FFF7C2FFB7F91A40002CF2D1B5F9D1
:103B30001A000028BED1BDE8FC810000040300206B
:103B40006C480020704A00202DE9FC4788469146C9
:103B5000002634E0FDF731FD848B0546A0072CD507
:103B6000B9F1000F05D04A462946684600F0BAFF71
:103B700003E0D5E90001CDE900016946404601F0C6
:103B8000A5F9D0B1E00706D1BDF80400401CA8F8A3
:103B90000000012611E0B5F918400CE02046FDF7C1
:103BA0000CFD07466A4641462046FFF7CDFF00B1AF
:103BB0000126B7F91A40002CF0D1B5F91A000028F7
:103BC000C8D13046BDE8FC872DE9FC410E46904641
:103BD00030E0FDF7F2FC848B0546A00728D5B8F14C
:103BE000000F05D042462946684600F07BFF03E0FF
:103BF000D5E90001CDE900016946304601F066F9DA
:103C0000B0B1E00704D1BDF80000401EB0800FE065
:103C1000B5F918400AE02046FDF7CFFC07466A4692
:103C200031462046FFF7D0FFB7F91A40002CF2D1F9
:103C3000B5F91A000028CCD17DE700224A800A801D
:103C400082880388D21A8A80C2884088101AC88065
:103C500070472DE9FF4106000F462ED0FEF778FB96
:103C60003046FDF7AAFC858B0446A80723D5D4E986
:103C70000001CDE9020167B108223946684603F028
:103C800075FD69462046FFF767FD694602A800F00A
:103C90000CFF314602A8FFF788FD60B140F6010035
:103CA0000540012D03D102A8FFF715FE03E002A98C
:103CB0003046FFF71FFDFEF743FBBDE8FF81002103
:103CC000C7E72DE9F05FDDE90A65074688469146BA
:103CD0009B46DDF834A0FEF73BFBFB4CA089054377
:103CE0002EB9A08818B104F10A00B0F90060701C68
:103CF00001D1002619E0C6B13046FDF75EFCB0F9EF
:103D00000010B0F902200F449044B9F1000F04D123
:103D1000B0F90430591A01F10109BBF1000F04D1C7
:103D2000B0F90600801A00F1010B0AF1200000B280
:103D3000FCF7CCFD5FEA000A4FD0E348E2498088F7
:103D4000401C88805046FDF738FC078007EB0901CE
:103D5000A0F80280491E818008EB0B01491EC1803A
:103D60000C9901610446818B43F68F702840014312
:103D7000D548A183B0F9080050B1FDF71EFC0746F5
:103D80005046FDF71AFCB98A8182A7F814A002E018
:103D9000CD49A1F808A031465046FFF73FFDA806DF
:103DA00002D55046FFF7BFFDE80703D0C649486A71
:103DB000401C4862680602D5504600F04FFBA80739
:103DC00007D5A08B002140F00200A0835046FFF7EA
:103DD00040FF01215046FFF7EDFDFEF7B1FA5046D6
:103DE000BDE8F09F2DE9FF410D4616461F460AA982
:103DF0000EC9044600208DE80F003B463246294696
:103E00002046FFF75EFF04B0EAE4B048B0F93C009A
:103E100070472DE9FC41AE4ED6E90201CDE9000123
:103E2000306920B93088ADF80000708810E0B089A2
:103E3000401C00B2ADF800007189ADF80210B6F96F
:103E40000410884206DD3088ADF80000F089401C7F
:103E5000ADF80200BDF90200B6F9061088426BDC2D
:103E60009A4FB7F93C00FDF7A8FB0546BDF90000E5
:103E7000B6F9001088421BD1F088ADF80600B08872
:103E8000ADF80400B7F93C000AE0FDF796FB0446E4
:103E9000B0F91A0000226946FFF707FEB4F91600D0
:103EA0000028F2D1B5F9180000226946FFF7FDFDA0
:103EB000BDF80000ADF80400B7F93C000CE0FDF7D8
:103EC0007CFB0446B0F91A0000226946FFF73CFE6D
:103ED0000028EDD1B4F916000028F0D1B5F918008A
:103EE00000226946FFF730FE0028E1D1B6F9040050
:103EF000BDF90010ADF80400884204DADDE90001E4
:103F0000C6E902019FE7B7F93C000AE0FDF755FB5F
:103F10000446B0F91A0000226946FFF755FEB4F9CD
:103F200016000028F2D1B5F9180000226946FFF703
:103F30004BFE3069C82801DD0020FCE5DDE9000109
:103F4000C6E902010120F6E570B55F4C607808B95A
:103F5000002070BD5E4D6869012802DD401E686169
:103F6000F6E7207820B1002020705A48006880478A
:103F70002869401C2861FFF74CFF08B96869EDE724
:103F8000FFF732FC5448016819B15148083088479E
:103F90002070012070BD2DE9FF414B4E80467078A6
:103FA00010B9FFF721FC05E0494D6869401C6861C4
:103FB000012801DD012026E7444FB7F93C00FDF759
:103FC000FCFA04464FF0FF302861B07830B1082287
:103FD00004F1080102A803F0C9FB06E0A08B8007EA
:103FE0002CD5D4E90001CDE90201B8F1000F03D0CE
:103FF000414602A800F059FDB86B90B10146082275
:10400000684603F0B3FBB6F9120010B1FDF7D5FA1C
:10401000044669462046FFF79FFB694602A800F068
:1040200044FDB6F9121019B102A8FFF7BEFB28B182
:10403000B7F93C1002A8FFF7B8FB20B96869401E29
:1040400068610020DFE6DDE9020103C5FFF77CFFC0
:10405000D9E610B5FDF7C0F81C490020886310BDF3
:10406000FEB505460A69888B002A2BD0820729D520
:10407000154E4FF00F07B27801F10804521CB270D0
:10408000C0040AD5ADF8045000970294FFF7E1FF91
:1040900069462846FFF77AFC11E02046FFF77BFFD0
:1040A0000BE0ADF8045000970294FFF7D2FF694689
:1040B0002846FFF76BFCFFF747FF0028F1D1B078E7
:1040C000401EB070FEBD0000040300206C480020BC
:1040D000684A00207C020020780200202DE9F04789
:1040E000D74C81460D46B4F93C00FDF766FA08301E
:1040F0002946804600F0EAFE00281BD0D4E910676C
:104100004246294605F1080000F0ECFCDFF8348354
:104110002946A8F81290B5F900002064B5F902000C
:1041200060644846FFF79CFF0021A8F812100120A8
:10413000C4E91067BDE8F0872DE9F0470446808B9D
:104140008007F7D5B4F9186004F108091AE0304681
:10415000FDF733FA0546808BC043800710D14946EE
:10416000284600F0B3FE58B1D4E90278294630461B
:10417000FFF7B4FF10B12846FFF7DEFFC4E902786D
:10418000B5F91A60002EE2D1D4E770B501464C684B
:1041900040F60102A18BB0F900001140012902D0C4
:1041A0002146FFF75DFFA748406A002823D020463C
:1041B000FFF7C2FFB4F91660B4F91A5019E02846A7
:1041C000FDF7FBF90446808BC043800703D12146ED
:1041D0002846FFF783FF2046FFF7AEFFB4F91A50D9
:1041E000002DECD13046FDF7E8F9B0F91A50B0F9DE
:1041F0001660002EF4D170BD2DE9F041904F80463D
:10420000B7F93C00FDF7D9F9D0E90256D7E9011218
:10421000C0E9021204464046FFF7B7FFC4E9025660
:10422000BDE8F081F0B5874E99B0306A00B18047A3
:104230008548006808B1804710B9FCF757FF10B1F6
:10424000012019B0F0BD707820B3F08810B3FEF7EC
:104250007FF8B6F90850B6F91400012400B10546FC
:1042600001A8FCF797FF0BE02846FDF7A6F90746E3
:104270000146284600F0A3F800B1641EB7F91450B7
:104280000DB1002CF0D1B58201A8FCF787FFFEF735
:1042900057F8D5E70020D4E710B5002400E001244A
:1042A000FFF7C0FF0028FAD1204610BD70B5B0F965
:1042B0000450044686682846FDF77FF921681729CF
:1042C00011D007DC0E2910D0142917D13146FFF781
:1042D000B4FC13E022290ED028290FD12846BDE8CE
:1042E00070400021B5E4A56070BD21462846BDE8B8
:1042F000704002F020B96FF0704000E00020A06034
:1043000070BD10B5044600680E2810D00F280AD1E1
:104310004C486FF070411C300068884203D0FCF7B5
:1043200045FFFDF71DFD2046BDE81040BEE7A06833
:104330004168012904D10068BDE81040FCF7C3BE04
:1043400010BD404901204870704710B53D4900201C
:104350004870FDF7FDFF01F045F9BDE81040FDF79D
:10436000EFBF3EB5374CE078002827D12081344993
:10437000A0828863E080A080344A0221CDE9001247
:1043800040F6FF72029013460146FFF72BFD04F141
:104390000A0528806FF0704104F11C021160FFF7DC
:1043A0008EFC2B4802F028F82A4802F025F8B5F9CF
:1043B0000000FFF7B8FA01206070E0703EBD70B5F4
:1043C0000646888B002586B00C46800635D52069C8
:1043D00000B3314604F10800FFF7E7F9D0B1ADF8BA
:1043E000106030460594FFF79EFAA08B400712D567
:1043F000D4E90201CDE90201A08B40F30003E08A79
:104400005B1C00B900230093002304AA124902A8F0
:10441000FEF7B4F803E004A8FFF7B7FE0125A08B70
:1044200020F02000A08380B2810402D540F0040077
:10443000A0830448C188491EC180284606B070BDCB
:104440006C480020040300206C0200200343000895
:10445000440300204C030020F94100082DE9F041FD
:104460000646FDF775FFCEB13046FDF7A6F80546C6
:10447000304601F019FF040010D0304601F0E5FF8E
:10448000FDF79BF807462046FDF797F8698B4183B7
:10449000388B68833E832846FFF71DFABDE8F0415C
:1044A000FDF74EBFFFF70BBC70B50546FDF750FF9B
:1044B000FDB12846FDF781F80446B0F91A00C0B1F5
:1044C000A18B090704D4FDF778F8808B000710D47E
:1044D000B4F916402846FFF7DCF921462846FFF7D5
:1044E0009DF92846FFF7EBFB00220449284601F01E
:1044F0009DFFBDE87040FDF723BF0000A544000804
:1045000070B505460C46FDF723FF35B12CB12846A2
:10451000FDF753F82146FFF790FBBDE87040FDF72B
:104520000FBF10B50446FDF713FF0748B0F90000B0
:1045300010B90648B0F93C002146FFF7E1FFBDE89D
:104540001040FDF7FDBE0000160300206C4800205F
:104550000EB500210291172100916946FFF716FA66
:10456000029800B20EBD00000148B0F9000070478B
:104570000E03002070B50D460026FDF71EF8B0F9B9
:10458000184011E0204600F032F8A84201D1204640
:1045900070BD29462046FFF7EDFF060006D12046F4
:1045A000FDF70BF8B0F91A40002CEBD1304670BD86
:1045B00070B504000E464FF0000508D0FDF7C8FEA8
:1045C00031462046FFF7D6FF0546FDF7B9FE2846DF
:1045D00070BD10B5040008D0FDF7BAFE2046FCF708
:1045E000ECFFB0F91840FDF7ABFE204610BD0EB54C
:1045F000152100916946FFF7C9F902980EBDB0F97F
:104600000410B0F90000081A401C7047B0F90610F9
:10461000B0F90200081A401C704710B50446FDF7B7
:1046200097FE204600F01FF8FCF7C7FFB0F9041012
:10463000B0F900000C1A641CFDF782FE204610BD84
:1046400010B50446FDF784FE204600F00CF8FCF798
:10465000B4FFB0F90610B0F902000C1A641CFDF7A3
:104660006FFE204610BD002801D1FFF7CEBB70477A
:1046700010B5040014D0FDF76BFE2046FCF79DFF3B
:10468000818B8A0708D521F0020181832046FCF73F
:1046900094FF2146FFF708FABDE81040FDF750BE31
:1046A00010BD10B50446FDF753FE2046FFF78AF90A
:1046B0000446FDF745FE204610BD2DE9F0410546B4
:1046C0000E46174619E02846FCF777FF04463A469F
:1046D000314600F0CCFB3A46314604F1080000F0C8
:1046E000C6FBB4F918003A463146FFF7E6FF03214E
:1046F0002846FFF75FF9B4F91A50002DE3D1BDE861
:10470000F0812DE9FC4105000E46174624D02846CD
:10471000FCF753FF044603C83A46CDE90001314691
:10472000204600F0A4FB3A46314604F1080000F0B0
:104730009EFBB4F918003A463146FFF7BEFFA08B46
:10474000800705D52046FFF7C6F86846FFF7C3F88F
:1047500003212846FFF72EF9BDE8FC8170B504005F
:104760000E4615460CD02046FCF727FFB0F9001086
:10477000B0F90200711A2A1A2046BDE87040C0E75D
:1047800070BD70B504460D461646FDF7E1FD324694
:1047900029462046FFF7B5FFBDE87040FDF7D0BDC4
:1047A00070B504460D461646FDF7D2FD3246294641
:1047B0002046FFF7D3FFBDE87040FDF7C1BDF0B55F
:1047C000074687B00D46164651EA020060D0002F1A
:1047D0005ED0FDF7BDFD3846FCF7EFFE0446D0E99C
:1047E0000010CDE9051008460699CDE903017DB119
:1047F000A08B010607D5800505D4BDF80C00401B31
:10480000ADF80C0004E0BDF810002844ADF810002D
:104810007EB1A08BC10507D5400505D4BDF80E00BB
:10482000801BADF80E0004E0BDF812003044ADF876
:10483000120003AA05A901A8FCF712FCDDE9030197
:10484000C4E9000101A8FFF746F8BDF91200BDF95F
:104850001A10431ABDF91000BDF918100093431A3D
:10486000BDF90E00BDF91610421ABDF90C00BDF9D4
:104870001410411A204601F04BFD214604F10800B6
:1048800000F013F905213846FFF794F8FDF758FDBD
:1048900007B0F0BD0249024608880A807047000050
:1048A000100300202DE9FF410021074601A80A4618
:1048B0000B460EC0FDF74CFDD7B3214CB4F90000F8
:1048C000874236D01F210191ADF800000021ADF8DC
:1048D0000270039110B101A9FFF758F8012003906D
:1048E0003846278001A9FFF751F8039E6C46212521
:1048F00006BB05E001A9384601950394FFF746F889
:10490000384601F0A2FD0700F4D1BDF90070384629
:10491000FFF7C7FE70B105E001A938460195039481
:10492000FFF734F8384601F090FD0700F4D101E0BC
:10493000FFE70126FDF704FD304604B0BDE8F08135
:104940001403002070B5040012D02046FFF7B7F919
:104950002046FFF73EFE044608E02046FCF72DFE09
:1049600005462046FFF7EEFFB5F91A40002CF4D1BA
:1049700070BD10B5040011D0FDF7EAFC2046FCF72D
:104980001CFE818B8A0705D441F0020181832046F9
:10499000FFF7D8FFBDE81040FDF7D2BC10BD10B541
:1049A00004000CD0FDF7D4FC2046FCF706FE818BFA
:1049B00041F004018183BDE81040FDF7C1BC10BD8A
:1049C00010B504000DD0FDF7C3FC2046FCF7F5FD43
:1049D000818B4DF6FB7211408183BDE81040FDF7DD
:1049E000AFBC10BD2DE9F0410C461746984680B388
:1049F00000F02BFA064608F0030001280DD002282B
:104A000010D1B4F90410B4F90000091A891B491C2B
:104A100001EBD17100EB610506E0B4F90400851BE0
:104A20006D1C01E0B4F90050FCF78EFE014608F061
:104A30000C0004280ED00C2811D1B4F90620B4F9CA
:104A40000200121A521A521C02EBD27200EB6200E0
:104A500007E010E0B4F90600401A401C01E0B4F988
:104A600002003D807880AA19521E0844BA80401E78
:104A7000F880BDE8F08121463846BDE8F0410822C3
:104A800002F074BE02488169087DC97D48437047C1
:104A90006C480020026812F8011B09B90120704718
:104AA0000A2900D1026000207047B0F90030B1F946
:104AB0000020934200DA0280B0F90230B1F90220FE
:104AC000934200DA4280B0F90430B1F904209342F5
:104AD00000DD8280B0F90620B1F906108A4200DDBF
:104AE000C180704770B5B1F90030B2F90040A342FF
:104AF00000DC23460380B1F90250B2F90240A5421E
:104B000000DC25464580B1F90440B2F90460B442A6
:104B100000DD34468480B1F90610B2F906209142D6
:104B200000DD1146C1809C4201DBA94201DA002070
:104B300070BD012070BD10B502E000F8011B521ECF
:104B40000AB18307F9D1930818D001EB014402F0B0
:104B5000030204EB042406E004604460846040F82F
:104B60000C4F001D1B1F042BF6DA01E010C05B1E6A
:104B7000002BFBD102E000F8011B521E002AFAD1E3
:104B800010BD0B88134403808B889B1A83804B884D
:104B900013444380C988891AC18070472DE9F041C8
:104BA00005460E460027B0F9000001F0CDFE98B191
:104BB000304601F0D9FE401C00B2FCF7F0FC0400C6
:104BC0000AD02046FCF7F9FC314602F0AAFD28463F
:104BD000FCF74CFD2C8001273846BDE8F08170B50C
:104BE00004460D4600F008F8C1B22B462046BDE849
:104BF0007040002200F023B8011E10B54FF00100F4
:104C00000B4600DC4B42294A00E0401C52F8204091
:104C10009C4201D80928F8DB002900DA401C10BDAD
:104C200010B5002802DA2D22404200E02B220B684A
:104C30005C1C0C601A70096800220A7010BDF0B587
:104C4000002807DA1C682D25661C1E60257040426E
:104C5000012400E00024091BC9B20AB1491EC9B2EF
:104C6000124E56F82140844200D8601EDFF840C042
:104C700016E00C46491EC9B2944205D11C689CF846
:104C80000070651C1D60277056F8215090FBF5F4EC
:104C9000E4B204FB15001D6830346F1C1F602C70DB
:104CA0000029E6D1196800200870F0BD4CAE02085A
:104CB00065020020B0F90630B0F90420B0F9021006
:104CC000B0F90000FDF71CB81CB50A46014668465D
:104CD000FFF757FFFDF73CFB2248BDF80020016CB1
:104CE0000A44ADF80020BDF80220406C0244ADF843
:104CF0000220BDF804201144ADF80410BDF80610E0
:104D00000844ADF806006846FFF745F925E0BDF90F
:104D100000400AE0BDF90210204600F01FFBBDF97B
:104D20000610204600F01AFBA41CBDF90400A042A6
:104D3000F0DABDF902400AE0BDF90000214600F0BA
:104D40000DFBBDF90400214600F008FBA41CBDF9D1
:104D50000600A042F0DAFFF7F7F80028D7D1FDF7F8
:104D6000EFFA1CBD6C480020C388042B2DD012DC48
:104D7000012B1CD0022B3AD183888068534303EB6C
:104D80009102805C062202EA4101C1F10601C8409D
:104D900000F003007047082B23D0102B27D1838805
:104DA0008068534303EB41010844008870478388BF
:104DB0008068534303EBD102805C01F00701C1F12D
:104DC0000701C84000F001007047838880685343A2
:104DD00003EB5102825CC90702F00F00F4D1100905
:104DE00070478388806802FB0311405C7047002095
:104DF000704710B5FDF7ACFA01F0DAFD0446FDF797
:104E00009FFA204610BD10B5FDF7A2FA01F0D0FDC3
:104E100000F00AFC0446FDF793FA204610BD10B5D9
:104E2000FDF796FA01F0C7FD0446FDF789FA204622
:104E300010BD10B5FDF78CFA01F0BDFD00F0F4FBDC
:104E40000446FDF77DFA204610BD10B5044601F07A
:104E50008BFD01462046BDE8104000F048B9017DB9
:104E6000C07D48437047417DC07D4843704700285E
:104E70000BD003880B4403808388194481804188C8
:104E800011444180C1881144C18070470C490EC94A
:104E900080E80E00007A002800D00120704710B58D
:104EA00004460949074808600C222146044802F0DC
:104EB00011FC002802D00ECC01480EC010BD00002D
:104EC000804A0020AF6700086C020020B0F9022081
:104ED000B1F906309A4213DCB1F90220B0F906307C
:104EE0009A420DDCB0F90020B1F904309A4207DC97
:104EF000B1F90010B0F90400814201DC01207047D3
:104F00000020704710B5FDF723FA01F059FD01F0BC
:104F100067FDFFF716FABDE81040FDF711BA000073
:104F200070B50546FDF714FA0348847D8575FDF7D5
:104F300007FA204670BD00006C48002030B40C4CCD
:104F40002268831A00D55B4262688A1A00D55242F1
:104F50001A44022A03DD03C430BC01F019BD30BC81
:104F60007047034A13680360506808607047000088
:104F70003003002010B50446FDF7EAF93148C06956
:104F80004168204688470446FDF7DAF9204610BDFF
:104F900010B50446FDF7DCF92A48C06901682046CF
:104FA00088470446FDF7CCF9204610BD70B504468D
:104FB0000D46FDF7CDF923482946C069C268204651
:104FC00090470446FDF7BCF9204670BD1D49C969EC
:104FD000896808472DE9F0411A4E04460568F069D2
:104FE0000168284688470746F0694168284688478F
:104FF000284420603846BDE8F0812DE9F04105469F
:105000000E4600240F4F05E0F8694168284688479E
:1050100005440444761EF7D22046ECE72DE9F04122
:10502000002506460F462C46DFF8188006E0D8F823
:105030001C1030194968884704446D1CA742F6DCEF
:105040002846D8E76C480020007870470120704758
:105050000120704701700120704710B5FDF778F905
:1050600004490348C861BDE81040FDF769B9000074
:10507000C8AE02086C480020F7B54E4D0C462869B2
:10508000114618B1FFF722FF002806D0A869006971
:1050900020B18268214600989047FEBD464E0BE045
:1050A0006846FFF797FF0746A869016838468847B2
:1050B000316809B138468847641EF1D5FEBD73B525
:1050C00000980D46002480B13A498969096951B1B7
:1050D0004A68294690477CBD6846FFF77BFF20B1B0
:1050E0000A2802D0641CAC42F6DB20467CBD73B5B6
:1050F00000980C46002578B12E498969096949B1A3
:105100000A68214690477CBD6846FFF763FFFCF7BD
:1051100067FB0544641EF7D528467CBD7CB5054673
:1051200026480E460068114668B10020FEF733FF9E
:1051300006E06A4631462846FFF79EFFFEF704FF69
:105140000028F6D17CBD0822684602F00FFB194CFE
:10515000BDF80010206C0144ADF80010BDF802202D
:10516000616C0A44ADF80220BDF804201044ADF88B
:105170000400BDF806000844ADF806006846FEF7D6
:105180000AFF0CE0BDF800006084BDF80200A084B6
:105190006A4631462846FFF76FFFFEF7D5FE002826
:1051A000F0D1608C216C401A6084A08C616C401A34
:1051B000A0847CBD6C480020700200207402002096
:1051C0002DE9F04FDFF850B18BB0BBF922200A92E5
:1051D000DBF81820BBF924A094694FF0FF36A189B1
:1051E000884205D3E389834202D3451A276813E036
:1051F000D4E9017179B10B8898420CD34D8885426E
:1052000009D3C01A496880B201EB8000B0F90050A0
:10521000B0F9026000E03546681C58D0107DA17CD2
:1052200000FB01F9217CCDE90801BBF92A80404649
:1052300000F086F8C0B205FB09720790364BA17CDE
:10524000012002AD0FC5DBF818005146C37D827DF9
:10525000CDE90023DDE908320A9800F0DAF8701C85
:1052600016D048F0020000F06BF806FB09722A4BDA
:10527000A17C012002AD0FC5DBF818005146C37DAB
:10528000827DCDE90023DDE908320A9800F0C1F8FB
:10529000DBF818005D46417D007D814214D9B8F1EC
:1052A000020F11D088F0040000F04AF8A869037DCD
:1052B000427D857D03FB02A102EB0A03DDE90920A3
:1052C00002FB050200F085F8079800F039F8BBF8FA
:1052D0002210627C1144ABF822100BB0BDE8F08FB5
:1052E0000D4880698069407C7047022008807047C3
:1052F00080698289914202D3C2898A4207D280683A
:1053000038B102888A4204D84088884201D30120FB
:1053100070470020704700006C48002010B504461C
:10532000012000F09DF9D24921F8104010BD10B5C0
:105330000446002000F094F9CD4921F8104010BD3A
:1053400010B5CB490246087B80EA02035B0703D510
:105350000B884C880C804B800A7310BD30B4C44A53
:10536000B2F906308B4217DCB2F90A308B4213DBFC
:10537000B2F9043083420FDCB2F9083083420BDB10
:10538000137BDC0713469B6C02D09A6A30BC104733
:1053900052885B6A30BC184730BC704730B4B44C9C
:1053A000B4F906308B42F7DCB4F90A308B42F3DBF8
:1053B000B4F90430834200DD1846B4F90830934252
:1053C00000DA1A468242E7DBA36C1B6930BC18473F
:1053D000E2E730B4A64DB5F90440844200DD204632
:1053E000B5F90840944200DA22468242D4DBB5F98E
:1053F00006408C4200DD2146B5F90A409C4200DAA5
:1054000023468B42C8DBAC6CA469A44630BC604721
:10541000C2E72DE9FF4F0546964887B0D0F800C097
:105420000026189C0F469346BCF1000F0CD0DDE916
:105430001601199B02AA13C20593DDE91423CDE9D5
:105440000023DCF800405CE00A9805EB0B013A18F9
:10545000DDE91403521E491E184301286BD1844E06
:10546000B6F90630D81B002808DD0A9F3F1A0A97B4
:10547000002F4BDD1F46179B00FB0344B6F90A00C3
:10548000101A002804DD0A9A101A0A9000283DDD3F
:10549000B6F90800081A002801DDABEB000BB6F9DD
:1054A00004000022A8421FDD421B1698ABEB020B42
:1054B000042836D00BDC01282BD0022814D122F08E
:1054C000030004EBA204054402F003020CE0684967
:1054D000B1F90410491B294408282AD0102803D107
:1054E00004EB42040D460022BBF1000F0EDD1798BD
:1054F000CDE90242199B0493169B01900093B06C76
:10550000C4685A46394628460A9BA0470BB0BDE8F6
:10551000F08F22F0070004EBE204054402F00702DA
:10552000E2E722F0010004EB6204054402F001020C
:10553000DAE71444D6E716980597C0F108000390FF
:10554000002004904AE015990598494A08440690BD
:10555000401E0290B2F90610814237DC1046B0F9C5
:105560000A000599884231DB0027A246A846B946C1
:105570002AE017B91AF8016B0827039936FA01F0E7
:10558000169906FA01F6F6B2A7EB010703D13849DE
:10559000097B890714D4364949880191199909B1C1
:1055A00031F81000324948801499404608EB010256
:1055B000521E029B0599FFF70CFF2D490198488068
:1055C000149909F101098844D945D2DB0498401C9B
:1055D0000490069805901798044404980A99884204
:1055E000B1DB93E72248816C001D096A084710B5BA
:1055F000FFF7F8FF05F0A5F8044600F078F804205E
:10560000FFF79EFE40F6FF72002113460846FFF7A3
:10561000E0FE0020FFF794FE05F098F8204610BD4C
:105620001349896C096808471149896C496808471A
:1056300010B50F494A6B824205D04863FFF7F0FF6F
:10564000BDE8104073E610BD10B509490A6B8242EF
:1056500005D00863FFF7E4FFBDE810405EE610BD2B
:10566000034A0146127B401E520700D40846704789
:105670006C4800207402002001F046B901F0C0B966
:1056800001F04DB900210180418040F23F1181803D
:10569000EF21C180704700007CB5064C0546A06C28
:1056A000016A684688476A462946201DFFF71AFAAC
:1056B0007CBD00006C4800202DE9F04128B18668CF
:1056C0001EB10568B5F5807F02DD0020BDE8F081E0
:1056D0000024074F06E056F82400FFF7A1FF27F843
:1056E0001400641CAC42F6DB0148EFE7E4E77047C6
:1056F0008C4A002010B50446E948B0F94C00FBF78D
:105700005CFF018821804188618001888288114482
:10571000491EA1804188C0880844401EE08010BD19
:1057200010B50446DE48B0F94C00FBF746FFC169EE
:105730002046BDE81040084710B50446D848B0F9E7
:105740004C00FBF73AFF016A2046BDE810400847CD
:1057500010B5D348B0F94C00FBF72FFF406ABDE805
:105760001040004710B50446FCF7F2FD8CB1CC4860
:10577000B0F94C00A04201D1FFF7C4FB2046FBF773
:105780001CFFB0F9180008B101F012FD2046FBF72C
:1057900060FFBDE81040FCF7D3BD2DE9FF4F81B09D
:1057A000DDE90E4BDBF83C90924602FB09F0C01D90
:1057B0001D460026C708FBF711FFE10705D1C117F9
:1057C00000EB9170801000EB4000002D06DC2C38BF
:1057D000B0FBF7F06D42A84200DC0546E00708D1B7
:1057E00000230093DDE901012B46524601F0B1FD93
:1057F0000646002D05DCFCF7A3FD002005B0BDE842
:10580000F08F05FB07F02C30E10700B202D0FBF768
:10581000C6FE01E0FBF75AF85FEA00081BD04046DD
:10582000FBF7CBFE0199018002994180A0F804A00A
:105830000446C580FCF798FEC4E902072683109948
:10584000E161119921621299C4E9091BC4F8109011
:105850000021616103E016B13046FBF7FAFE4046D5
:10586000CCE72DE9F04385B005460E46174698462D
:10587000DDF83090FCF76CFD8A4889490468B1F97D
:105880004C0010B9886C0EC803E0FBF796FE1C3084
:105890000EC8A06BCDE9009002A80EC043463A4660
:1058A00031462846FFF779FF0446FCF749FD2046BC
:1058B00005B0BDE8F08338B51C46002300932346AD
:1058C000FFF7CFFF38BD2DE9F0410546FCF740FD5D
:1058D000734CB4F94C7015B9FFF714FB14E028466B
:1058E000FBF76BFE0646FEF730FDB4F84C0028B916
:1058F0006B480822211D4E3001F038FFA4F84C50AF
:10590000B06AA064FFF76EFEFCF71AFD3846BDE8EA
:10591000F0812DE9F74F8AB09246FBF74EFE07461D
:10592000B0F91800B7F906100991D7E903B1089149
:10593000C90807F12C06079100285ED0FBF73DFE51
:105940008046002454E000200690D8F80800224643
:10595000436906A940469847B7F9041005468142B5
:1059600042D1A14600E0641CD8F80800621C4369DB
:1059700006A940469847A842F5D00898CDE903B655
:10598000002305930123019300930290A4EB0903E4
:105990001D465B1CB7F904200AEB09010B98FFF7C1
:1059A00038FD6B1C03FB0B6621E0DDE906C00CFB38
:1059B00000620898CDE903B2002305930123029009
:1059C00001930B9800930AEB040160442A46FFF709
:1059D00020FD0698224628440690D8F8080006A91B
:1059E0004369404698470546002DDED15E44641C5D
:1059F00009988442A7DB0DB001E70898CDE903B60A
:105A0000002305930123019302900093B7F904202A
:105A10005146099B0B98FFF7FCFCECE72DE9FC4194
:105A20005FEA00080D46164634D0FCF791FC1C488E
:105A3000B0F94C704046FBF7C0FD0446FFF762FA30
:105A400040F6FF70401903D1B4F90050B4F9026078
:105A5000A188681E0844ADF80400ADF80050E18844
:105A6000701E0844ADF80260ADF80600FEF769FC50
:105A70006846FEF790FA06E0324629464046FFF7B0
:105A800048FFFEF761FA0028F6D13846FFF71BFF02
:105A9000FCF756FCBDE8FC8103490A46BEE700005E
:105AA0006C4800203803002001F0FFFF10B504000F
:105AB00004D10B48B0F94C40002C10D0FCF748FC46
:105AC0002046FBF77AFDB0F9180020B1FBF775FD11
:105AD000816889688847BDE81040FCF731BC10BD7B
